:020000040800F2
:100000004005002001010008390D0008550B0008CB
:10001000930B0008B50100085520000800000000FF
:10002000000000000000000000000000A116000811
:100030008F09000800000000CD0D00088D17000892
:100040001B0100081B0100081B0100082D140008FB
:100050001B0100081B0100081B0100081B01000810
:100060001B0100081B0100081B0100081B01000800
:100070001B0100081B0100081B0100081B010008F0
:100080001B0100081B0100081B0100089D1E000841
:10009000C11E00081B0100081B0100081B0100080D
:1000A0001B0100081B0100081B0100081B010008C0
:1000B0001B010008C51800081B0100081B010008EF
:1000C0001B0100081B0100081B0100089D16000809
:1000D0009F1600081B0100081B010008651C000892
:1000E0001B0100081B0100081B010008DFF80CD0F1
:1000F00000F02AF800480047C12100084005002010
:100100000648804706480047FEE7FEE7FEE7FEE7B1
:10011000FEE7FEE7FEE7FEE7FEE7FEE765180008FC
:10012000ED000008D2B201E000F8012B491EFBD21D
:1001300070470022F6E710B513460A4604461946F2
:10014000FFF7F0FF204610BD064C074D06E0E068C3
:1001500040F0010394E8070098471034AC42F6D30E
:10016000FFF7C8FF3C2200085C22000810B5012000
:1001700000F05EFE002000F05BFE10BD08B50146F9
:1001800000200090034800900098084400900098D8
:10019000008808BD006C004008B500220092044AA7
:1001A0000092009A02440092009A116008BD00007B
:1001B000006C004000BFFEE7B1F5007F3AD00FDCD5
:1001C000202928D006DC01291CD004291DD00829AB
:1001D00040D11DE0402921D0B1F5807F3AD126E001
:1001E000B1F5004F31D006DCB1F5806F25D0B1F507
:1001F000006F2FD124E0B1F5803F12D0B1F5003F60
:1002000028D111E0154A826025E00822C26022E070
:100210001022C2601FE0082202611CE0102202616D
:1002200019E00822426016E01022426013E0042226
:10023000426010E0042242600DE0042242600AE0C5
:10024000002282610422426005E0002282610422D1
:10025000426000E000BF00BF7047000001010100E4
:1002600010B504460B48844209D10121480600F02C
:10027000BFFD00214FF0007000F0BAFD08E0012141
:10028000880600F0B5FD00214FF0806000F0B0FD61
:1002900010BD00000064004010B5002106E00922F6
:1002A00000BF131EA2F10102FBD1491C8142F6D30B
:1002B00010BD000010B50021837A012202FA03F17B
:1002C0003D4A126842F001023B4B1A603A4A1C3226
:1002D00012688A43384B1C331A60027BCAB9364A0B
:1002E0000C3212688A43344B0C331A604288C3883C
:1002F00042EA0343304A4032847A42F8343002887A
:10030000838842EA03432C4A4032847A02EBC402D7
:100310005360027B012A19D1274A0C3212680A4322
:10032000254B0C331A604288038842EA0343224A71
:100330004032847A42F83430C288838842EA0343E8
:100340001D4A4032847A02EBC4025360C27A3AB941
:10035000194A121D12688A43174B1B1D1A6006E0CA
:10036000154A121D12680A43134B1B1D1A6002899D
:1003700032B9114A143212688A430F4B14331A608F
:100380000289012A06D10C4A143212680A430A4B28
:1003900014331A60427B012A06D1074A1C321268C4
:1003A0000A43054B1C331A60034A126822F001020B
:1003B000014B1A6010BD00000066004008B5012125
:1003C000480600F005FD0121092000F021FD012172
:1003D0004FF4EA1000F076FB4FF48070ADF80000A7
:1003E00048208DF8030003208DF802006946094873
:1003F00000F0DDFA4FF40070ADF8000018208DF821
:10040000030003208DF802006946024800F0CFFA8D
:1004100008BD0000000C014070B504460D460026E2
:1004200060692840002871D0B5F5807F5CD010DC71
:10043000082D35D006DC012D20D0022D24D0042D2E
:1004400072D127E0102D31D0202D35D0402D6BD129
:1004500038E0B5F5004F60D009DCB5F5007F49D034
:10046000B5F5806F4CD0B5F5006F5DD14FE0B5F5B7
:10047000803F2DD0B5F5003F56D12FE0A0682D4923
:1004800000F07CFA064651E0E068032100F076FABD
:1004900006464BE0E068082100F070FA064645E0A9
:1004A000E068102100F06AFA06463FE02069032167
:1004B00000F064FA064639E02069082100F05EFA8F
:1004C000064633E02069102100F058FA06462DE078
:1004D0006068082100F052FA064627E060681021A3
:1004E00000F04CFA064621E0A069012100F046FA2E
:1004F00006461BE0A069022100F040FA064615E01E
:10050000A069042100F03AFA06460FE00FE0A06966
:10051000702100F033FA064608E06068042100F01C
:100520002DFA064602E0FFE7002600BF00E00026A5
:10053000304670BD0101010000B587B02548FFF7C6
:100540008FFE04A800F077F900208DF816008DF8D2
:1005500017008DF818008DF819008DF81A00012089
:100560008DF81B0000208DF812008DF81300042078
:100570008DF8140002208DF815000420ADF810004D
:1005800004A9144800F031F800208DF80A008DF815
:100590000B0001208DF80C000020ADF80000ADF834
:1005A0000200ADF80400ADF80600ADF80800012027
:1005B0008DF80D006846FFF77DFE012202210548F7
:1005C00000F00AF801221146024800F005F807B0D1
:1005D00000BD0000006400401AB143690B43436151
:1005E00002E043698B434361704730B50246002007
:1005F0000023146824F002041460146844F0010419
:10060000146000E05B1C546804F001041CB94FF650
:10061000FF74A342F6D1546804F001040CB9002021
:100620006CE08C79012C04D1146844F080041460CF
:1006300003E0146824F080041460CC79012C04D108
:10064000146844F04004146003E0146824F040048B
:1006500014600C7A012C04D1146844F02004146056
:1006600003E0146824F0200414604C7A012C04D1B7
:10067000146844F01004146003E0146824F01004BB
:1006800014608C7A012C04D1146844F008041460BE
:1006900003E0146824F008041460CC7A012C04D11F
:1006A000146844F00404146003E0146824F00404A3
:1006B00014608C78A407CD7844EA05640D7944EA87
:1006C00005444D7944EA05540D886D1E2C43D461D0
:1006D000146824F001041460002300E05B1C5468DB
:1006E00004F001041CB14FF6FF74A342F6D1546824
:1006F00004F001040CB1002000E0012030BD08B579
:100700004FF4E06000F052FB13208DF80000012050
:100710008DF8010000208DF8020001208DF8030003
:10072000684600F00BFB14208DF8000001208DF8C6
:10073000010000208DF8020001208DF803006846BA
:1007400000F0FCFA08BD10B500F5D87303EB0113F7
:100750001B6803F004031372137A53B900F5D873BE
:1007600003EB01131B6840F2FF7404EA5353136058
:1007700009E000F5D87303EB01131B686FF06044C8
:1007800004EAD303536000F5D87303EB01131B682D
:1007900003F00203537200F5D87303EB01135B6897
:1007A00003F00F03937200F5D87303EB01135B683A
:1007B0001B0AD37400F5D87303EB01139B68D37243
:1007C00000F5D87303EB01139B681C0A147300F542
:1007D000D87303EB01139B681C0C547300F5D8739A
:1007E00003EB01139B681B0E937300F5D87303EBA7
:1007F0000113DB68D37300F5D87303EB0113DB68D7
:100800001C0A147400F5D87303EB0113DB681C0C8D
:10081000547400F5D87303EB0113DB681B0E93745B
:1008200021B9C36843F02003C36003E0036943F0C8
:100830002003036110BD00218171C17101724172F9
:100840008172C1728170C1700321017102214171F5
:1008500001210180704710B502460020936803F023
:100860008063B3F1806F00D110E0936803F0006300
:10087000B3F1006F01D1012008E0936803F08053C9
:10088000B3F1805F01D1022000E00420042874D07D
:1008900002F5C07303EB00131B6803F0010402F5BB
:1008A000C07303EB00131C600B7A7BB94B7A0C8886
:1008B00043EA445302F5C07404EB00142468234354
:1008C00002F5C07404EB0014236010E00B7A4C684E
:1008D00043EAC4034C7A234302F5C07404EB0014CA
:1008E0002468234302F5C07404EB001423608B7A60
:1008F00003F00F038B7202F5C07303EB00135B6808
:1009000023F00F0402F5C07303EB00135C6002F5E3
:10091000C07303EB00135B688C7A234302F5C07449
:1009200004EB001463608B7B1C064B7B44EA03449E
:100930000B7B44EA0323CC7A234302F5C07404EB17
:100940000014A3608B7C1C064B7C44EA03440B7CA4
:1009500044EA0323CC7B234302F5C07404EB001468
:10096000E36002F5C07303EB00131B6843F001045E
:1009700002F5C07303EB00131C6010BD024600209B
:1009800002EA01030BB1012000E00020704770472C
:10099000002109E0002201E0531C9AB242F645030F
:1009A0009A42F9DB4B1C99B28142F3DB70472DE987
:1009B000F0410246002500260020002300240027E5
:1009C00091F803C00CF00F0591F803C00CF0100C67
:1009D000BCF1000F03D091F802C04CEA050591F874
:1009E00000C0BCF1000F31D0146800202BE04FF0A4
:1009F000010C0CFA00F3B1F800C00CEA03069E42A9
:100A000020D183004FF00F0C0CFA03F7BC4305FA1A
:100A100003FC4CEA040491F803C0BCF1280F06D192
:100A20004FF0010C0CFA00FCC2F814C00AE091F877
:100A300003C0BCF1480F05D14FF0010C0CFA00FCCB
:100A4000C2F810C0401C0828D1D31460B1F800C00F
:100A5000BCF1FF0F34DD546800202EE000F1080CDB
:100A60004FF0010808FA0CF3B1F800C00CEA0306D5
:100A70009E4221D183004FF00F0C0CFA03F7BC43C8
:100A800005FA03FC4CEA040491F803C0BCF1280FFA
:100A900005D100F1080C08FA0CF8C2F8148091F89E
:100AA00003C0BCF1480F07D100F1080C4FF001085A
:100AB00008FA0CF8C2F81080401C0828CED3546005
:100AC000BDE8F081F0B50A4600230024002100258E
:100AD00000F00046B6F1004F02D11D4EF16901E071
:100AE0001B4E7168C0F3034583B200F44016B6F59F
:100AF000401F08D121F07061154E766826F07066AF
:100B0000134F7E6012E000F48016B6F5801F06D108
:100B1000032606FA05F4A14341F0706106E0460D94
:100B2000360103FA06F6B14341F0706122B1460D79
:100B3000360103FA06F6314300F00046B6F1004FE5
:100B400002D1034EF16101E0014E7160F0BD000081
:100B50000000014000BFFEE70146CA1701EB927298
:100B60009210A1EB820292B9642091FBF0F200FB9B
:100B7000121050B94FF4C87091FBF0F200FB121044
:100B800008B9012070470020FCE70120FAE70020A7
:100B9000F8E700BFFEE7000010B52348B0F90230C7
:100BA000008902B20121002000F026FB1E48B0F9A6
:100BB0000430008902B20221002000F01DFB1A4817
:100BC000B0F90630008902B20321002000F014FBC6
:100BD0000120FFF7DDFE1449D1F8A80001F09DFACD
:100BE000124988420FDA1049D1F8AC0001F095FAA9
:100BF0000E49884207DA0C49D1F8B00001F08DFAAD
:100C00000A4988420EDB002107484182A0F84410BF
:100C1000A0F876100322084600F04EFA4FF4FA705E
:100C2000FFF7B6FE10BD00003C000020FCFFFF3FB8
:100C30000648007830B90020044948800021034864
:100C40008180C18000200149087070473C0000206D
:100C5000C178827841EA022109B20A4A5180417979
:100C6000027941EA02210AB206498A80C179827971
:100C700041EA02210AB20349CA800121014A1170E6
:100C8000704700003C0000200020064908704870B2
:100C900041F288300881002048800021014881808D
:100CA000C18070473C00002010B502469AB900216F
:100CB000002005E01F4B33F910301944431CD8B213
:100CC0001928F7DB192391FBF3F31CB2194B123BE4
:100CD000A3F8B4402CE0012A14D10021002006E042
:100CE000144B323333F910301944431CD8B219284D
:100CF000F6DB192391FBF3F31CB20E4B123BA3F866
:100D0000B64015E0022A13D10021002006E0094B6D
:100D1000643333F910301944431CD8B21928F6DB78
:100D2000192391FBF3F31CB2024B123BA3F8B8401A
:100D300010BD00004E0000207047000070B500217B
:100D400000230F22C47804B3154C246804F4E06433
:100D5000C4F5E064210AC1F10403CA40447804FAEE
:100D600003F184781440214309010E4C0678A15503
:100D7000047804F01F050124AC4005786D11AD0026
:100D800005F1E025C5F8004109E0047804F01F05ED
:100D90000124AC40044D0678761145F8264070BD1C
:100DA0000CED00E000E400E080E100E002490143D6
:100DB000024A1160704700000000FA050CED00E0E7
:100DC000014908627047000000000E4270470000B1
:100DD00029B1064AD2690243044BDA6104E0034AAE
:100DE000D2698243014BDA61704700000010024073
:100DF00029B1064A12690243044B1A6104E0034A0E
:100E000012698243014B1A617047000000100240D2
:100E100029B1064A92690243044B9A6104E0034AED
:100E200092698243014B9A617047000000100240B2
:100E300001490860704700004004424230B500217B
:100E40000022002400232D4D6D6805F00C0121B116
:100E5000042905D0082923D105E0294D056022E0A9
:100E6000274D05601FE0254D6D6805F47012234D78
:100E70006D6805F48034022505EB92421CB9214DC2
:100E8000554305600BE01D4D6D6805F400351DB13F
:100E90001C4D5543056002E0194D5543056002E0C5
:100EA000174D056000BF00BF144D6D6805F0F001DF
:100EB0000909154D6B5C0568DD4045600F4D6D6897
:100EC00005F4E061090A104D6B5C4568DD40856002
:100ED0000A4D6D6805F46051C90A0B4D6B5C45689D
:100EE000DD40C560054D6D6805F44041890B074D37
:100EF0006B5CC568B5FBF3F5056130BD00100240C1
:100F000000127A0000093D0028000020380000206F
:100F100010B501460022002300204A11012A02D107
:100F2000094C236806E0022A02D1074C236A01E03B
:100F3000054C636A01F01F02012494401C400CB16F
:100F4000012000E0002010BD0010024000210B4AEB
:100F500011700A4A203A82F82010012802D0042891
:100F600008D103E00121054A117004E00521034A7C
:100F7000117000E000BF00BF704700002010024069
:100F800001490860704700003C0442420249096A76
:100F90000143014A116270470010024010B5FFF78B
:100FA0000DFAFFF7ACFBFFF7C7FA10BD2DE9F041D2
:100FB00086B004460D46174698460A2600208DF84E
:100FC0000C008DF80D0008208DF80E00072C06DCB3
:100FD0000F2D04DC46EA042646EA051602E006B0B8
:100FE000BDE8F08101968DF80F708DF810805521C5
:100FF0008DF811108DF812108DF813108DF8141053
:101000008DF815108DF8161000200F49087001A9F1
:101010000E48FFF720FC00200D4908600CE001207D
:10102000FFF73AF90A480068401C09490860084679
:101030000068642800D903E0034800780028EED057
:1010400000BF00BFCBE7000010000020006400409C
:101050000C00002010B54FF4FA7001F099F800214F
:10106000084600F079F84FF4FA7001F091F8002387
:101070000A2201211846FFF799FF642001F096F833
:1010800000230A2202211846FFF790FF642001F096
:101090008DF800230A2203211846FFF787FF6420FA
:1010A00001F084F803220021084600F005F84FF40F
:1010B000FA7001F06DF810BDF0B585B004460D462C
:1010C0001746012600208DF808008DF80900082039
:1010D0008DF80A00072C06DC0F2D04DC46EA0426F6
:1010E00046EA051601E005B0F0BD00968DF80B70DC
:1010F00055218DF80C108DF80D108DF80E108DF80F
:101100000F108DF810108DF811108DF812100020AE
:101110000E49087069460E48FFF79DFB00200D49F7
:1011200008600CE00120FFF7B7F80A480068401C8F
:101130000849086008460068642800D903E00348AD
:1011400000780028EED000BF00BFCCE710000020E0
:10115000006400400C00002070B586B004460D46C7
:10116000002600208DF80C008DF80D0008208DF869
:101170000E00072C06DC0F2D04DC46EA042646EAA6
:10118000051601E006B070BD019655208DF80F00E0
:1011900055218DF810108DF811108DF812108DF862
:1011A00013108DF814108DF815108DF816100020FE
:1011B0000E49087001A90E48FFF74DFB00200D49AC
:1011C00008600CE00120FFF767F80A480068401C3F
:1011D0000849086008460068642800D903E003480D
:1011E00000780028EED000BF00BFCBE71000002041
:1011F000006400400C0000202DE9F04186B0054657
:101200000E4614461F464FF0040800208DF80C00CF
:101210008DF80D0008208DF80E00072D06DC0F2E2E
:1012200004DC48EA052848EA061802E006B0BDE8F2
:10123000F081CDF8048041F28830844201DD04461B
:1012400003E01E48844200DA0446002C03DA2046FC
:1012500000F0E0FF0446200A8DF80F008DF81040E2
:10126000390A8DF811108DF8127055218DF8131070
:101270008DF814108DF815108DF8161000201049F7
:10128000087001A90F48FFF7E6FA00200E49086030
:101290000CE00120FFF700F80B480068401C0A49E9
:1012A000086008460068642800D903E00448007814
:1012B0000028EED000BF00BFB8E7000078ECFFFFC9
:1012C00010000020006400400C0000200249098842
:1012D0008143014A11807047042800400348008878
:1012E00040F01000014908807047000004280040C9
:1012F000034800884FF6EF710840014908807047A5
:101300000428004070B500260024002500F072F883
:1013100006463448B6FBF0F433480088A0423CD07F
:1013200031490C8040F2B27510E02846FFF714FCFA
:1013300040B1B4F5B77F02D3A4F5B77404E0681CDC
:1013400085B206E0A4F26D14681C85B2B4F5B67FD0
:10135000EBD800BF25488580002516E02349888802
:10136000FFF7FAFB30B1012D04D11D2C01D31D3C38
:1013700009E00CE01E48405DA04203D81C48405DD7
:10138000241A00E003E0681C85B21C2CE6D200BFE2
:10139000681C16498871601CC8711248B6FBF0F1D0
:1013A00000FB11644FF46160B4FBF0F00F4908706A
:1013B0004FF46160B4FBF0F100FB11403C21B0FB45
:1013C000F1F00A4948704FF46160B4FBF0F100FBA2
:1013D00011403C21B0FBF1F201FB1200034988707F
:1013E000002070BD8051010008000020F80000209E
:1013F00030220008002103480188001F008841EACC
:10140000004070471C28004001460020064A128810
:101410000A40D0B2044A121F12880A4012B108B121
:10142000012000E0002070470428004010B5012092
:10143000FFF7EAFF40B1FFF765FF08480078401C5E
:1014400006490870FFF7F4FB0220FFF7DDFF0520D7
:10145000FFF73CFF00F006F910BD00000600002079
:1014600029B1064A12880243044B1A8004E0034A59
:1014700012888243014B1A80704700000028004008
:101480001CB5002401214FF0C050FFF7A1FC012042
:10149000FFF796FC0420FEF771FE45F250018842EA
:1014A0003ED0FEF763FE0120FFF750FD04E0601C14
:1014B000C4B20A20FFF76CFA4120FFF729FD00288B
:1014C000F5D0FA2C01DB01201CBD4FF48070FFF732
:1014D0005DFD0120FFF754FD00F0C4F800F0CCF8EA
:1014E00001210846FFF7BCFF00F0BCF8FFF7F6FE4D
:1014F00041F69A1000F0A6F800F0B4F80020009031
:10150000034601221146019040F2B27000F026F825
:10151000FFF7EEFE45F250010420FEF73DFE07E026
:1015200000F0AAF801210846FFF79AFF00F09AF8A8
:1015300000F004F8FFF7E6FE0020C5E708B5032039
:101540008DF8000000208DF801008DF802000120C8
:101550008DF803006846FFF7F1FB08BD2DE9F05F49
:1015600006460F4690469946DDE90AAB002440F254
:10157000B270864203DB40F63300864202DD012072
:10158000BDE8F09F40F2B2750AE02846FFF7E4FAA2
:1015900010B12148044401E020480444681C85B28D
:1015A000B542F2DB781EC7B2002510E01C48405D52
:1015B00040F2A321484304EBC0143046FFF7CCFAB5
:1015C00018B1012D01D117480444681C85B2BD42F1
:1015D000ECDBA8F1010040F2A321484304EBC01466
:1015E000C9EB4910C0EB092004EB0014CAEB0A1048
:1015F00004EB80045C4401214FF0C050FFF7E8FB8E
:101600000120FFF7DDFB204600F00EF800F02AF87D
:10161000FFF778FE0020B3E70085E2018033E101A7
:10162000302200088051010000B50246FFF756FE47
:10163000100C03490880091D0A80FFF759FE00BD00
:101640001828004000B50246FFF748FEC2F30340E9
:1016500003490880091D0A80FFF74AFE00BD00000B
:101660000828004000BF0348008800F02000002840
:10167000F9D0704704280040074800884FF6F771FA
:1016800008400549088000BF0348008800F00800B2
:101690000028F9D0704700000428004070477047C8
:1016A000704710B500F002F810BD00000CB5002026
:1016B000019000903348006840F480303149086060
:1016C00000BF3048006800F4003000900198401CD2
:1016D0000190009818B90198B0F5A06FF1D1294890
:1016E000006800F4003010B10120009001E00020FB
:1016F00000900098012843D12348006840F0100072
:10170000214908600846006820F003000860084688
:10171000006840F0020008601A48406819494860B3
:101720000846406848600846406840F48060486069
:101730000846406820F47C1048600846406840F441
:10174000E81048600846006840F08070086000BFFC
:101750000C48006800F000700028F9D00948406883
:1017600020F00300074948600846406840F0020046
:10177000486000BF0348406800F00C000828F9D119
:101780000CBD000000100240002002400A48006822
:1017900048B109480068401E0749086007480088AA
:1017A000401C0649088005480088B0F57A7F02DBB6
:1017B000002002490880704700000020040000203B
:1017C00010B5002100200022214B5B6803F00C01C2
:1017D00021B1042906D0082928D107E01D4B1E4C51
:1017E000236027E01B4B1C4C236023E0184B5B68F5
:1017F00003F47010164B5B6803F48032022303EB92
:10180000904022B9154B4343134C23600DE0104B1D
:101810005B6803F4003323B1104B43430E4C236049
:1018200003E00C4B43430C4C236003E0094B0A4C90
:10183000236000BF00BF064B5B68C3F30313084C73
:10184000E15C054B1B68CB40034C236010BD0000DE
:101850000010024000127A001400002000093D0030
:101860001800002010B51348006840F0010011492D
:10187000086008464068104908400E49486008461C
:1018800000680E4908400B4908600846006820F4CB
:10189000802008600846406820F4FE0048604FF44D
:1018A0001F008860FFF7FDFE4FF0006004490860EC
:1018B00010BD0000001002400000FFF8FFFFF6FE20
:1018C00008ED00E010B50121074800F02CF830B118
:1018D0000121064880F8BA10034800F015F80121EC
:1018E000014800F011F810BD000400403C00002049
:1018F00021B1028842F08002028004E002884FF6A3
:101900007F731A4002807047CA430282704721B138
:10191000028842F00102028004E002884FF6FE7362
:101920001A400280704730B5024600200023002490
:10193000158A05EA0103958905EA010413B10CB182
:10194000012000E0002030BD1AB183890B43838160
:1019500002E083898B438381704700000022028864
:101960001D4B98420ED01D4B98420BD0B0F1804FCA
:1019700008D01B4B984205D01A4B984202D01A4B04
:10198000984204D14FF68F731A404B881A43174B75
:10199000984207D0164B984204D04FF6FF431A40A6
:1019A000CB881A4302808B8883850B8803850A4B7A
:1019B00098420BD0094B984208D00E4B984205D064
:1019C0000D4B984202D00D4B984201D10B7A038601
:1019D0000123838270470000002C01400034014045
:1019E0000004004000080040000C004000100040CF
:1019F0000014004000400140004401400048014004
:101A00007FB505460C464FF4E060FFF7CFF90121A2
:101A10000220FFF7DDF9ADF80850ADF804400020D2
:101A2000ADF80A00ADF8060001A90F48FFF796FFD0
:101A3000012211460C48FFF787FF01210A48FFF7F2
:101A400057FF1D208DF8000005208DF801008DF84E
:101A5000020001208DF803006846FFF76FF90121AD
:101A60000148FFF754FF7FBD0004004030B587B048
:101A70001625182101A8FEF75CFBAA208DF80400AA
:101A80005448B0F8B400000A8DF80500514890F8A9
:101A9000B4008DF806004F48B0F8B600000A8DF883
:101AA00007004C4890F8B6008DF808004948B0F897
:101AB000B800000A8DF80900464890F8B8008DF883
:101AC0000A004448D0F8A800000E8DF80B004148E9
:101AD000D0F8A800000C8DF80C003E48B0F8A80023
:101AE000000A8DF80D003B4890F8A8008DF80E0014
:101AF0003848D0F8AC00000E8DF80F003548D0F80B
:101B0000AC00000C8DF810003248B0F8AC00000AB0
:101B10008DF811002F4890F8AC008DF812002D4878
:101B2000D0F8B000000E8DF813002A48D0F8B000AD
:101B3000000C8DF814002748B0F8B000000A8DF8AA
:101B40001500244890F8B0008DF816009DF80500A7
:101B50009DF8061048409DF8071048409DF8081071
:101B600048409DF8091048409DF80A1048409DF8EB
:101B70000B1048409DF80C1048409DF80D1048404F
:101B80009DF80E1048409DF80F1048409DF8101029
:101B900048409DF8111048409DF8121048409DF8AB
:101BA000131048409DF8141048409DF81510484007
:101BB0009DF8161080EA01048DF8174016208DF864
:101BC000180055208DF81900162101A800F084F89E
:101BD00007B030BD3C00002010B50446204890F806
:101BE00020001F490C54084690F82000401C81F842
:101BF000200008460078FF2802D0002081F820004D
:101C0000174890F820001F2803DD0020144981F8B0
:101C10002000134890F8200009281FDD10480078A4
:101C2000FF2817D10E484078FF2813D10C4890F8B0
:101C30002000401E0A49085CAA280BD1084690F8EB
:101C40002000801E085C91F82010884202D10448D0
:101C5000FEF7FEFF0020024981F8200010BD0000C1
:101C60000401002010B508210F4800F075F818B1E4
:101C700008210E4800F04CF840F225510A4800F0C7
:101C80006BF850B10849091D0988C8B2FFF7A4FFD5
:101C900040F22551044800F044F840F22551024832
:101CA00000F03FF810BD0000004800400044004034
:101CB00008B54FF4E060FFF779F827208DF80000B1
:101CC00000208DF801008DF8020001208DF803003E
:101CD0006846FFF733F808BD70B504460D460FE0BF
:101CE00040210A4800F014F814F8011B074800F0DE
:101CF000D1F800BF4021054800F02EF80128F9D1A5
:101D0000281EA5F10101CDB2EAD170BD0048004006
:101D100001F40072B2F5007F00D100BFCA43028017
:101D2000704710B50022002340F66A14A14200D18A
:101D300000BF0A1201249440A3B2DC43048010BD0A
:101D400021B1828942F40052828104E082894DF6F9
:101D5000FF731A408281704702460020B1F5007F70
:101D600000D100BF13880B400BB1012000E0002020
:101D70007047F0B50346002400260025002040F6F9
:101D80006A17B94200D100BF1846C1F3421401F0EE
:101D90001F06012707FA06F5012C01D10C3004E0DB
:101DA000022C01D1103000E014301AB107682F4323
:101DB000076002E00768AF430760F0BD2DE9F04718
:101DC00086B005460E460024A24600BFA146002765
:101DD000B08900B100BF2F462C8A4CF6FF7004403A
:101DE000F08804432C82AC894EF6F3100440B0888E
:101DF00031890843718908430443AC81AC8A4FF6AA
:101E0000FF400440B0890443AC8201A8FFF716F8F4
:101E10001F48874202D1DDF810A001E0DDF80CA0D8
:101E2000A88900F4004040B10AEBCA0000EB0A1098
:101E300031684900B0FBF1F807E00AEBCA0000EB9B
:101E40000A1031688900B0FBF1F86420B8FBF0F0AB
:101E500004012009642101FB1089A88900F40040D5
:101E600040B1322000EBC900B0FBF1F000F00700F8
:101E7000044308E0322000EB09106421B0FBF1F0CC
:101E800000F00F0004432C8106B0BDE8F08700008D
:101E900000380140C1F308028280704710B501216B
:101EA0000548FEF7B9FA30B101210348FEF784F97D
:101EB00001200249087010BD00640040100000209D
:101EC00010B586B002216148FEF7A6FA00284AD074
:101ED00002215E48FEF770F901AA00215B48FEF777
:101EE00032FC9DF80C0000283DD19DF80C00002824
:101EF000FAD19DF80E000828F6D101981B2833D19D
:101F00009DF810009DF80F1040EA012000B25049E2
:101F100088819DF812109DF8110041EA002001B25D
:101F20004B4841829DF8130001069DF8140041EAD8
:101F300000419DF8150041EA00209DF81610084365
:101F40004349C1F8A800182408E0611E4048123037
:101F500030F8111020F81410601E44B2002CF4DC8C
:101F60000020FEF7A1FE6EE001982B2834D19DF8E9
:101F700010009DF80F1040EA012001B23448C181E1
:101F80009DF812109DF8110041EA002001B230487E
:101F9000A0F844109DF8130001069DF8140041EAD2
:101FA00000419DF8150041EA00219DF8160001430B
:101FB0002748C0F8AC10182408E0611E24484430BB
:101FC00030F8111020F81410601E44B2002CF4DC1C
:101FD0000120FEF769FE36E001983B2833D19DF8D9
:101FE00010009DF80F1040EA012001B2184801824C
:101FF0009DF812109DF8110041EA002001B214482A
:10200000A0F876109DF8130001069DF8140041EA2F
:1020100000419DF8150041EA00209DF8161001438B
:102020000B48C0F8B010182408E0611E084876304C
:1020300030F8111020F81410601E44B2002CF4DCAB
:102040000220FEF731FE06B010BD00000064004023
:102050003C00002000BFFEE708B501210820FEF784
:10206000D7FE01218804FEF7B3FE4FF40060ADF8FF
:10207000000004208DF8030003208DF8020069465B
:102080000848FEF794FC4FF48060ADF8000018207B
:102090008DF8030003208DF8020069460148FEF721
:1020A00086FC08BD000C014010B5FFF7D5FF00F01D
:1020B00003F8FFF7FDFD10BD1FB54FF4E1300090B0
:1020C0000020ADF80400ADF80600ADF80800ADF84A
:1020D0000C000C20ADF80A0069460748FFF76EFEB9
:1020E000012240F225510448FFF743FE0121024836
:1020F000FFF726FE1FBD00000048004002E008C8B0
:10210000121F08C1002AFAD170477047002001E071
:1021100001C1121F002AFBD170470146002901DAD4
:10212000484270470846FCE770B5FFF749FB144882
:102130000068144AB0FBF2F1B1F1807F00D31DE0DA
:1021400021F07F40401E4FF0E022506150170F22D7
:10215000002807DA13071D0E0B4B00F00F04241F95
:102160001D5503E013071C0E084B1C5400BF002034
:102170004FF0E02290610720106100BF70BD0000A9
:102180001400002040420F0018ED00E000E400E0E1
:1021900000B5024603E04FF47A7000F007F8101E15
:1021A000A2F101018AB2F6D100BD00000349086026
:1021B00000BF024909680029FBD1704700000020D8
:1021C000FFF750FB4FF4FA60FEF7E2FBFFF7ACFFBE
:1021D000FFF76AFFFEF758FDFEF7E0FEFEF73AFF55
:1021E000FFF74EF940F2CF2140F6C410FFF708FC8C
:1021F0000CE0FEF7D1FC064890F8BA00012805D1A2
:10220000FFF734FC0021024880F8BA10F1E7000023
:102210003C0000200146002901DA484200E008465F
:1022200000B270470003030601040602050003051F
:102230001F1C1F1E1F1E1F1F1E1F1E1F5C220008AB
:10224000000000203C000000FC200008982200084C
:102250003C000020040500000C21000800000000E4
:10226000000000000000000000000000000000006E
:1022700000A24A0400000000000000000102030464
:10228000060708090000000001020304010203041C
:08229000060708090204060814
:04000005080000ED02
:00000001FF
